:020000040800F2
:1000000000000220B5320008152F00081D2F00083F
:10001000252F00082D2F0008352F000800000000B4
:10002000000000000000000000000000E16E000879
:100030003D2F000800000000C16F0008A9670008FC
:1000400005330008053300080533000805330008B0
:1000500005330008053300080533000805330008A0
:100060000533000805330008053300080533000890
:100070000533000805330008053300080533000880
:100080004D2F0008612F00080533000805330008D4
:100090000533000805330008053300080533000860
:1000A0000533000805330008053300080533000850
:1000B0000533000805330008053300080533000840
:1000C0000533000805330008053300080533000830
:1000D00005330008752F0008892F00080533000834
:1000E0000533000805330008053300080533000810
:1000F0000533000805330008053300080533000800
:1001000005330008053300080533000805330008EF
:100110000533000805330008CD2F0008053300081B
:1001200005330008E12F0008F52F0008053300080B
:1001300005330008053300080533000805330008BF
:1001400005330008053300080533000805330008AF
:1001500005330008093000081D3000083130000860
:10016000053300080533000805330008053300088F
:1001700005330008053300080533000800000000BF
:080180000533000805330008F7
:1001900010B5054C237833B9044B13B10448AFF3C1
:1001A00000800123237010BD000200200000000029
:1001B00090B8000808B5034B1BB103490348AFF3DF
:1001C000008008BD000000000402002090B8000874
:1001D00001F0FF01102A2BDB10F0070F08D010F8F8
:1001E000013B013A8B422DD010F0070F42B3F6D1FC
:1001F000F0B441EA012141EA014122F007047FF015
:1002000000070023F0E80256083C85EA010586EA6B
:10021000010685FA47F5A3FA87F586FA47F6A5FAA7
:1002200087F68EB9EED1F0BC01F0FF0102F00702B3
:1002300032B110F8013B013A83EA010313B1F8D15E
:100240000020704701387047002D06BF354603383F
:10025000073815F0010F07D1013015F4807F02BF78
:10026000013015F4C03F0130F0BC0138704700BFC9
:10027000034613F8012B002AFBD1181A01387047E6
:1002800081F0004102E000BF83F0004330B54FEA47
:1002900041044FEA430594EA050F08BF90EA020FB4
:1002A0001FBF54EA000C55EA020C7FEA645C7FEA47
:1002B000655C00F0E2804FEA5454D4EB5555B8BF6A
:1002C0006D420CDD2C4480EA020281EA030382EADB
:1002D000000083EA010180EA020281EA0303362D6D
:1002E00088BF30BD11F0004F4FEA01314FF4801C40
:1002F0004CEA113102D0404261EB410113F0004F52
:100300004FEA03334CEA133302D0524263EB430308
:1003100094EA050F00F0A780A4F10104D5F1200EA6
:100320000DDB02FA0EFC22FA05F2801841F1000101
:1003300003FA0EF2801843FA05F359410EE0A5F1D5
:1003400020050EF1200E012A03FA0EFC28BF4CF006
:10035000020C43FA05F3C01851EBE37101F00045BC
:1003600007D54FF0000EDCF1000C7EEB00006EEBC9
:100370000101B1F5801F1BD3B1F5001F0CD3490853
:100380005FEA30004FEA3C0C04F101044FEA4452AA
:1003900012F5800F80F09A80BCF1004F08BF5FEA31
:1003A000500C50F1000041EB045141EA050130BD11
:1003B0005FEA4C0C404141EB0101013C28BFB1F523
:1003C000801FE9D291F0000F04BF01460020B1FA6E
:1003D00081F308BF2033A3F10B03B3F120020CDA41
:1003E0000C3208DD02F1140CC2F10C0201FA0CF01F
:1003F00021FA02F10CE002F11402D8BFC2F1200C84
:1004000001FA02F120FA0CFCDCBF41EA0C01904039
:10041000E41AA2BF01EB0451294330BD6FEA040482
:100420001F3C1CDA0C340EDC04F11404C4F120026D
:1004300020FA04F001FA02F340EA030021FA04F37F
:1004400045EA030130BDC4F10C04C4F1200220FAD6
:1004500002F001FA04F340EA0300294630BD21FA14
:1004600004F0294630BD94F0000F83F4801306BFDA
:1004700081F480110134013D4EE77FEA645C18BFCE
:100480007FEA655C29D094EA050F08BF90EA020F65
:1004900005D054EA000C04BF1946104630BD91EA5D
:1004A000030F1EBF0021002030BD5FEA545C05D160
:1004B0004000494128BF41F0004130BD14F580049F
:1004C0003CBF01F5801130BD01F0004545F0FE4113
:1004D00041F470014FF0000030BD7FEA645C1ABF48
:1004E000194610467FEA655C1CBF0B46024650EA7F
:1004F000013406BF52EA033591EA030F41F40021AB
:1005000030BD00BF90F0000F04BF0021704730B530
:100510004FF4806404F132044FF000054FF0000105
:1005200050E700BF90F0000F04BF0021704730B5C6
:100530004FF4806404F1320410F0004548BF40429B
:100540004FF000013EE700BF42004FEAE2014FEAF0
:1005500031014FEA02701FBF12F07F4393F07F4FCB
:1005600081F06051704732F07F4208BF704793F0CE
:100570007F4F04BF41F40021704730B54FF46074E1
:1005800001F0004521F000411CE700BF50EA0102E4
:1005900008BF704730B54FF000050AE050EA01028D
:1005A00008BF704730B511F0004502D5404261EBFD
:1005B00041014FF4806404F132045FEA915C3FF43E
:1005C000D8AE4FF003025FEADC0C18BF03325FEADB
:1005D000DC0C18BF033202EBDC02C2F1200300FA8C
:1005E00003FC20FA02F001FA03FE40EA0E0021FAB1
:1005F00002F11444BDE600BF70B54FF0FF0C4CF49F
:10060000E06C1CEA11541DBF1CEA135594EA0C0F50
:1006100095EA0C0F00F0DEF82C4481EA030621EA8B
:100620004C5123EA4C5350EA013518BF52EA0335C6
:1006300041F4801143F4801338D0A0FB02CE4FF078
:100640000005E1FB02E506F00042E0FB03E54FF0A8
:100650000006E1FB03569CF0000F18BF4EF0010EA0
:10066000A4F1FF04B6F5007F64F5407404D25FEA9C
:100670004E0E6D4146EB060642EAC62141EA55514F
:100680004FEAC52040EA5E504FEACE2EB4F1FD0C91
:1006900088BFBCF5E06F1ED8BEF1004F08BF5FEA0F
:1006A000500E50F1000041EB045170BD06F00046C1
:1006B00046EA010140EA020081EA0301B4EB5C046E
:1006C000C2BFD4EB0C0541EA045170BD41F4801166
:1006D0004FF0000E013C00F3AB8014F1360FDEBF8B
:1006E000002001F0004170BDC4F10004203C35DA67
:1006F0000C341BDC04F11404C4F1200500FA05F3EA
:1007000020FA04F001FA05F240EA020001F000428A
:1007100021F0004110EBD37021FA04F642EB060100
:100720005EEA430E08BF20EAD37070BDC4F10C042A
:10073000C4F1200500FA04F320FA05F001FA04F2EE
:1007400040EA020001F0004110EBD37041F10001DA
:100750005EEA430E08BF20EAD37070BDC4F12005E5
:1007600000FA05F24EEA020E20FA04F301FA05F24D
:1007700043EA020321FA04F001F0004121FA04F2F5
:1007800020EA020000EBD3705EEA430E08BF20EAC5
:10079000D37070BD94F0000F0FD101F000464000FF
:1007A00041EB010111F4801F08BF013CF7D041EA81
:1007B000060195F0000F18BF704703F00046520085
:1007C00043EB030313F4801F08BF013DF7D043EA56
:1007D0000603704794EA0C0F0CEA135518BF95EA0C
:1007E0000C0F0CD050EA410618BF52EA4306D1D193
:1007F00081EA030101F000414FF0000070BD50EAB2
:10080000410606BF1046194652EA430619D094EA3B
:100810000C0F02D150EA013613D195EA0C0F05D125
:1008200052EA03361CBF104619460AD181EA030179
:1008300001F0004141F0FE4141F470014FF0000031
:1008400070BD41F0FE4141F4780170BD70B54FF0CC
:10085000FF0C4CF4E06C1CEA11541DBF1CEA13554C
:1008600094EA0C0F95EA0C0F00F0A7F8A4EB05042E
:1008700081EA030E52EA03354FEA013100F0888025
:100880004FEA03334FF0805545EA131343EA1263EE
:100890004FEA022245EA111545EA10654FEA0026A3
:1008A0000EF000419D4208BF964244F1FD0404F55C
:1008B000407402D25B084FEA3202B61A65EB0305B8
:1008C0005B084FEA32024FF480104FF4002CB6EB75
:1008D000020E75EB030E22BFB61A754640EA0C00F5
:1008E0005B084FEA3202B6EB020E75EB030E22BF35
:1008F000B61A754640EA5C005B084FEA3202B6EB76
:10090000020E75EB030E22BFB61A754640EA9C0034
:100910005B084FEA3202B6EB020E75EB030E22BF04
:10092000B61A754640EADC0055EA060E18D04FEAC2
:10093000051545EA16754FEA06164FEAC30343EA62
:1009400052734FEAC2025FEA1C1CC0D111F4801F2F
:100950000BD141EA00014FF000004FF0004CB6E728
:1009600011F4801F04BF01430020B4F1FD0C88BFC7
:10097000BCF5E06F3FF6AFAEB5EB030C04BFB6EBD2
:10098000020C5FEA500C50F1000041EB045170BDC5
:100990000EF0004E4EEA113114EB5C04C2BFD4EBF2
:1009A0000C0541EA045170BD41F480114FF0000E76
:1009B000013C90E645EA060E8DE60CEA135594EAF2
:1009C0000C0F08BF95EA0C0F3FF43BAF94EA0C0FF5
:1009D0000AD150EA01347FF434AF95EA0C0F7FF46A
:1009E00025AF104619462CE795EA0C0F06D152EABE
:1009F00003353FF4FDAE1046194622E750EA4106A2
:100A000018BF52EA43067FF4C5AE50EA41047FF4B2
:100A10000DAF52EA43057FF4EBAE12E74FF0FF3C17
:100A200006E000BF4FF0010C02E000BF4FF0010CE8
:100A30004DF804CD4FEA410C7FEA6C5C4FEA430C61
:100A400018BF7FEA6C5C1BD001B050EA410C0CBFB0
:100A500052EA430C91EA030F02BF90EA020F002012
:100A6000704710F1000F91EA030F58BF994208BF79
:100A700090422CBFD8176FEAE37040F00100704736
:100A80004FEA410C7FEA6C5C02D150EA013C07D18D
:100A90004FEA430C7FEA6C5CD6D152EA033CD3D0D8
:100AA0005DF8040B704700BF8446104662468C46D2
:100AB0001946634600E000BF01B5FFF7B7FF002805
:100AC00048BF10F1000F01BD4DF808EDFFF7F4FF2E
:100AD0000CBF012000205DF808FB00BF4DF808EDB9
:100AE000FFF7EAFF34BF012000205DF808FB00BFDC
:100AF0004DF808EDFFF7E0FF94BF012000205DF8FE
:100B000008FB00BF4DF808EDFFF7CEFF94BF0120B2
:100B100000205DF808FB00BF4DF808EDFFF7C4FFAB
:100B200034BF012000205DF808FB00BF4FEA410CF4
:100B30007FEA6C5C02D150EA013C0AD14FEA430CD7
:100B40007FEA6C5C02D152EA033C02D14FF0000014
:100B500070474FF0010070474FEA410212F5001252
:100B600015D211D56FF47873B3EB625212D94FEAF4
:100B7000C12343F0004343EA505311F0004F23FADE
:100B800002F018BF404270474FF00000704750EA33
:100B9000013005D111F0004008BF6FF000407047F0
:100BA0004FF00000704700BF4A0011D212F500124A
:100BB00011D20DD56FF47873B3EB62520ED44FEAB5
:100BC000C12343F0004343EA505323FA02F0704735
:100BD0004FF00000704750EA013002D14FF0FF3073
:100BE00070474FF0000070474FEA4102B2F1E04316
:100BF00024BFB3F5001CDCF1FE5C0DD901F0004C04
:100C00004FEAC0024CEA5070B2F1004F40EB830053
:100C100008BF20F00100704711F0804F21D113F17F
:100C20003872BCBF01F00040704741F480114FEAB8
:100C30005252C2F11802C2F1200C10FA0CF320FA41
:100C400002F018BF40F001004FEAC1234FEAD3235E
:100C500003FA0CFC40EA0C0023FA02F34FEA4303C8
:100C6000CCE77FEA625307D150EA01331EBF4FF051
:100C7000FE4040F44000704701F0004040F0FE406C
:100C800040F40000704700BF53B94AB9002908BFBB
:100C900000281CBF4FF0FF314FF0FF3000F0BEB90D
:100CA000ADF1080C6DE904CE00F03CF8DDF804E08D
:100CB000DDE9022304B0704738B500220023044662
:100CC0000D46FFF70BFF28B920462946BDE83840FE
:100CD00000F00AB8204605F1004100F005F8404256
:100CE00061EB410138BD00BFD0B50C4B0022064678
:100CF0000F46FFF781FCFFF757FF0446FFF702FCA2
:100D0000074B0022FFF778FC02460B463046394677
:100D1000FFF7BAFAFFF748FF2146D0BD0000F03DCB
:100D20000000F0412DE9F047089D8E4604468846B4
:100D3000002B4AD18A42174662D9B2FA82F64EB1E6
:100D4000C6F1200301FA06F820FA03F3B74043EA9C
:100D50000808B4404FEA174E1FFA87FCB8FBFEF1B3
:100D6000230C0EFB118843EA084301FB0CF29A4264
:100D700009D9FB1801F1FF3080F0EA809A4240F275
:100D8000E78002393B449A1AA3B2B2FBFEF00EFB95
:100D9000102243EA024300FB0CFC9C4509D9FB18D6
:100DA00000F1FF3280F0D6809C4540F2D3803B4476
:100DB000023840EA0140A3EB0C0300211DB1F340CF
:100DC0000022C5E90032BDE8F0878B4205D90DB19C
:100DD000C5E9000100210846F5E7B3FA83F10029CF
:100DE00046D1734502D3824200F20581841A6EEB2C
:100DF000030201209046002DE5D0C5E90048E2E756
:100E0000002A00F09080B2FA82F6002E40F0A48012
:100E10008A1A030C4FEA174E80B2BCB20121B2FB12
:100E2000FEFC0EFB1C2243EA024304FB0CF29A4236
:100E300007D9FB180CF1FF3802D29A4200F2E08089
:100E4000C4469B1AB3FBFEF20EFB123340EA034387
:100E500002FB04F49C4207D9FB1802F1FF3002D2D6
:100E60009C4200F2CA8002461B1B42EA0C40A5E7E6
:100E7000C1F120068B4022FA06F71F430EFA01F457
:100E800020FA06F32EFA06FE4FEA1749234300FA2A
:100E900001F81FFA87FCBEFBF9F01C0C09FB10EEF1
:100EA00044EA0E4400FB0CFEA64502FA01F209D901
:100EB0003C1900F1FF3A80F09C80A64540F29980F1
:100EC00002383C44A4EB0E041FFA83FEB4FBF9F392
:100ED00009FB13444EEA044403FB0CFCA44508D967
:100EE0003C1903F1FF3E80F08280A4457FD9023B8C
:100EF0003C4443EA0040A4EB0C04A0FB02EC644534
:100F00007346E14662D35FD05DB1B8EB030264EB98
:100F1000090404FA06F622FA01F31E43CC40C5E99F
:100F2000006400214FE7B1FBF2FC010C41EA0E41E5
:100F300080B240EA01423B4638463C46B846BE468F
:100F40002026B1FBF7F1A2EB080241EA0C4166E76B
:100F5000014618E710462CE7C6F120022EFA02F3EC
:100F6000B740B14020FA02F24FEA174E0A43B3FBF2
:100F7000FEF8BCB20EFB1833110C41EA034108FB2A
:100F800004F9B04089454FEA104380B23ED9791840
:100F900008F1FF3C01D289451FD8A1EB0901B1FB43
:100FA000FEF909FB04F80EFB191192B242EA014264
:100FB000424529D2BA1809F1FF31C4D24245C2D202
:100FC000A9F102013A44BEE7F0459DD2BEEB02030F
:100FD0006CEB070C0138E14696E7A7EB0909494499
:100FE000A8F1020CB1FBFEF909FB04F8DBE773463C
:100FF0007FE7504666E70846FDE63B44023A33E7A2
:10100000ACF1020C3B441CE749469CE7A1EB09010B
:10101000C446B1FBFEF909FB04F8C4E7704700BF02
:1010200080B483B000AF78601C4A7B681A607B682C
:1010300000221A717B6800225A717B6800229A7123
:101040007B68073300221A601A717B680C33002218
:101050001A601A717B68113300221A601A717B685A
:1010600007229A757B68173300221A607B6800227A
:10107000DA767B681C3300221A605A609A609A8183
:101080007B682A3300221A607B680022DA857B683D
:1010900018460C37BD465DF8047B7047E4B800087D
:1010A00080B483B000AF7860044A7B681A607B68C4
:1010B00018460C37BD465DF8047B7047E4B800085D
:1010C00080B582B000AF78607868FFF7E9FF302123
:1010D000786806F00DF87B6818460837BD4680BD75
:1010E00080B483B000AF78607B6800221A607B68B0
:1010F0000022A3F804287B680022A3F806287B6856
:10110000002283F80C287B6818460C37BD465DF832
:10111000047B704780B584B000AF78600B467B805D
:101120000023FB812CE07B68B3F804389BB20133C9
:101130005A42C3F30803C2F3080258BF5342BB81AB
:101140007B68B3F806389BB2BA899A4214BF012370
:101150000023DBB2002B10D0FB897A68B2F8042898
:1011600092B211467A6813441A797B680B4483F86B
:1011700004227B68BA89A3F80428FB890133FB8128
:10118000FA897B889A42CED37B6818687B680433DF
:101190004FF40072194604F0D5F87B681B68DB6BCE
:1011A0001B681A687B681B68DB6B1B6822F00802EF
:1011B0001A6000BF1037BD4680BD80B584B000AF57
:1011C00078607B68B3F80A389AB27B68B3F808385D
:1011D0009BB29A420CBF01230023DBB2002B04D048
:1011E0007B68002283F80C2877E07B68012283F873
:1011F0000C280023FB817B68B3F80A38BB810CE024
:10120000FB890133FB81BB8901335A42C3F30803D5
:10121000C2F3080258BF5342BB817B68B3F8083859
:101220009BB2BA899A4205D0FB89B3F5007F01D2FF
:10123000012300E00023002BE2D1FB89002B04D125
:101240007B68002283F80C2847E07B68B3F80A38F3
:101250009BB21A46FB891344B3F5007FD4BF012328
:101260000023DBB2002B1DD07B6818687B68B3F8C5
:101270000A389BB203F500735B007A6813440433A9
:10128000FA89194603F03EFF7B68B3F80A389AB230
:10129000FB8913449BB2C3F308039AB27B68A3F89B
:1012A0000A281AE07B68B3F80A389BB2C3F50073CA
:1012B0007B817B6818687B68B3F80A389BB203F5BA
:1012C00000735B007A68134404337A89194603F08B
:1012D00019FF7B680022A3F80A281037BD4680BD9D
:1012E00080B483B000AF78607B6800221A607B68AE
:1012F0000022A3F804267B680022A3F806267B6858
:10130000002283F80C267B6818460C37BD465DF832
:10131000047B704780B582B000AF786039607B682D
:101320003A681A60786800F01FF97B68002283F839
:101330000C267B680022A3F80A267B680022A3F80B
:1013400008267B6818687B6804334FF400721946DE
:1013500003F0F8FF7B681B68DB6B1B681A687B680F
:101360001B68DB6B1B6822F008021A6000BF08379D
:10137000BD4680BD80B588B000AFF860B960134647
:10138000FB800023FB832EE0FB68B3F808369BB29A
:1013900001335A42C3F30803C2F3080258BF534251
:1013A000FB82FB68B3F80A369BB2FA8A9A420CBFFA
:1013B00001230023DBB2002B01D0002392E0FB8B42
:1013C000BA681344FA68B2F8082692B211461A783D
:1013D000FB680B4483F80424FB68FA8AA3F8082608
:1013E000FB8B0133FB83FA8BFB889A42CCD3FB68DF
:1013F00093F80C36DBB283F00103DBB2002B70D024
:10140000FB68012283F80C260023BB83FB68B3F83A
:101410000A367B830CE0BB8B0133BB837B8B0133B0
:101420005A42C3F30803C2F3080258BF53427B83F6
:10143000FB68B3F808369BB27A8B9A4205D0BB8B17
:10144000B3F5007F01D2012300E00023002BE2D19D
:10145000FB68B3F80A369BB21A46BB8B1344B3F54C
:10146000007FD4BF01230023DBB2002B16D0FB6822
:101470001868FB68B3F80A369BB203F58063FA6814
:1014800013440433BA8B194603F03CFEFB68B3F8EF
:1014900008369AB2FB68A3F80A2622E0FB68B3F884
:1014A0000A369BB2C3F500733B83FB681868FB6880
:1014B000B3F80A369BB203F58063FA681344043329
:1014C0003A8B194603F01EFEFB68B3F80A369AB24F
:1014D0003B8B13449BB2C3F308039AB2FB68A3F897
:1014E0000A26012318462037BD4680BD0EB480B5BC
:1014F000A5B000AF786007F1A003BB6007F10C0056
:10150000BB68D7F89C207E2106F092FEC7F88C00BD
:10151000D7F88C305A1CC7F88C2090333B440D22EE
:1015200003F8842CD7F88C305A1CC7F88C209033E1
:101530003B440A2203F8842C07F10C02D7F88C30C4
:10154000134400221A70D7F88C309AB207F10C03BA
:1015500019467868FFF70EFF034618469437BD46D4
:10156000BDE8804003B0704780B483B000AF7860BE
:101570007B680022A3F806267B680022A3F80426D5
:1015800000BF0C37BD465DF8047B704780B584B062
:1015900000AF78600B467B800023FB812CE07B68EA
:1015A000B3F804369BB201335A42C3F30803C2F3C3
:1015B000080258BF5342BB817B68B3F806369BB222
:1015C000BA899A4214BF01230023DBB2002B10D04A
:1015D000FB897A68B2F8042692B211467A681344FD
:1015E0001A797B680B4483F804227B68BA89A3F8D4
:1015F0000426FB890133FB81FA897B889A42CED38A
:101600007B6818687B6804334FF40072194603F056
:1016100099FE7B681B68DB6B1B681A687B681B681C
:10162000DB6B1B6822F008021A6000BF1037BD4652
:1016300080BD80B584B000AF78607B68B3F80A36AF
:101640009AB27B68B3F808369BB29A420CBF01236A
:101650000023DBB2002B04D07B68002283F80C2629
:1016600075E07B68012283F80C260023FB817B68F0
:10167000B3F80A36BB810CE0FB890133FB81BB89DF
:1016800001335A42C3F30803C2F3080258BF53425E
:10169000BB817B68B3F808369BB2BA899A4205D001
:1016A000FB89B3F5007F01D2012300E00023002B6A
:1016B000E2D1FB89002B04D17B68002283F80C2641
:1016C00045E07B68B3F80A369BB21A46FB8913449F
:1016D000B3F5007FD4BF01230023DBB2002B1CD065
:1016E0007B6818687B68B3F80A369BB203F58063A1
:1016F0007A6813440433FA89194603F003FD7B68C2
:10170000B3F80A369AB2FB8913449BB2C3F30803B9
:101710009AB27B68A3F80A2619E07B68B3F80A3608
:101720009BB2C3F500737B817B6818687B68B3F854
:101730000A369BB203F580637A68134404337A89CE
:10174000194603F0DFFC7B680022A3F80A26103755
:10175000BD4680BD80B582B000AF78603960614A17
:101760007B681A607B6800221A717B680022DA802D
:101770007B6800229A607B6800229A817B68002245
:101780009A737B680022DA737B6800221A747B6884
:1017900003F211234FF480720021184606F070FD09
:1017A0007B6803F212334FF400720021184606F0F2
:1017B00067FD7B680022A3F812257B680022A3F84E
:1017C00014257B680022A3F816257B680022A3F865
:1017D00018257B680022A3F81A257B68002283F86D
:1017E0001C257B680022C3F820257B680022C3F8F3
:1017F00024257B683A68C3F828257B6803F5A6632F
:101800001846FFF70DFC7B68002283F860257B6893
:10181000002283F861257B6803F2625300221A607C
:101820001A717B6803F2675300221A601A717B6891
:1018300003F26C5300221A601A717B68002283F84D
:1018400071257B680022C3F874257B680022C3F8E9
:1018500078257B680022C3F87C257B680022C3F8CA
:1018600080257B680022C3F884257B680022C3F8AA
:1018700088257B680022C3F88C257B680022C3F88A
:1018800090257B680022C3F894257B680022C3F86A
:1018900098257B680022A3F89C257B6803F29E5361
:1018A00000221A605A609A609A817B680022C3F80D
:1018B000AC257B680022A3F8B025472005F01AFC70
:1018C00003461A467B68C3F8B4257B680022C3F838
:1018D000B8257B680022C3F8BC257B68184608370A
:1018E000BD4680BDF4B8000880B582B000AF786016
:1018F000064A7B681A607B6803F5A6631846FFF703
:10190000CFFB7B6818460837BD4680BDF4B8000899
:1019100080B582B000AF78607868FFF7E5FF4FF4DC
:10192000B861786805F0E4FB7B6818460837BD4667
:1019300080BD80B485B000AFF860B9607A60FB68A4
:10194000BA681A60FB68BA685A60BB68002B03D09B
:10195000BA687B68134400E00023FA689360BB68B0
:10196000002B03D0BA687B68134400E00023FA68B8
:10197000D360FB6800221A74FB6818461437BD4612
:101980005DF8047B704780B483B000AF78607B68FB
:1019900000221A727B6818460C37BD465DF8047B3E
:1019A000704780B584B000AFF860B9607A60FB68BA
:1019B0007A68B9681846FFF7BCFFFB681833184609
:1019C000FFF7E1FFFB6818461037BD4680BD80B4C5
:1019D00083B000AF78607B6818460C37BD465DF871
:1019E000047B704780B483B000AF78607B68184692
:1019F0000C37BD465DF8047B704780B582B000AF00
:101A000078607B681846FFF7E2FF7B681846083766
:101A1000BD4680BD80B582B000AF7860064A7B6865
:101A20001A607B680833184600F02DF87B6818466A
:101A30000837BD4680BD00BF04B9000880B582B03C
:101A400000AF7860064A7B681A607B6808331846E6
:101A5000FFF7D3FF7B6818460837BD4680BD00BF3F
:101A600004B9000880B582B000AF78607868FFF7ED
:101A7000E5FF4FF40C71786805F03AFB7B68184677
:101A80000837BD4680BD80B582B000AF7860786809
:101A90007B6828334FF400721946FFF782FF7B689A
:101AA00018460837BD4680BD80B582B002AF00231E
:101AB000019301230093002300220121002000F064
:101AC00057FA03461A46AE4B1A70002301930123BE
:101AD0000093002301220021002000F049FA034670
:101AE0001A46A84B1A700023019301230093002388
:101AF00000220021012000F03BFA03461A46A24BC7
:101B00001A70002301930123009300230122012175
:101B1000012000F02DFA03461A469C4B1A7000F083
:101B2000FDF9282000F004FACF2000F001FA00208F
:101B300000F00EFA832000F00BFA302000F008FAD3
:101B4000ED2000F0F5F9642000F002FA032000F027
:101B5000FFF9122000F0FCF9812000F0F9F9E820EB
:101B600000F0E6F9852000F0F3F9012000F0F0F92B
:101B7000792000F0EDF9CB2000F0DAF9392000F0FF
:101B8000E7F92C2000F0E4F9002000F0E1F934201E
:101B900000F0DEF9022000F0DBF9F72000F0C8F9D0
:101BA000202000F0D5F9EA2000F0C2F9002000F072
:101BB000CFF9002000F0CCF9C02000F0B9F92620C0
:101BC00000F0C6F9C12000F0B3F9112000F0C0F90F
:101BD000C52000F0ADF9352000F0BAF93E2000F044
:101BE000B7F9C72000F0A4F9BE2000F0B1F9362003
:101BF00000F09EF9624B1B78184600F0A9F93A20D4
:101C000000F096F9552000F0A3F9B12000F090F90A
:101C1000002000F09DF91B2000F09AF9F22000F05E
:101C200087F9082000F094F9262000F081F90120BE
:101C300000F08EF9E02000F07BF91F2000F088F919
:101C40001A2000F085F9182000F082F90A2000F02F
:101C50007FF90F2000F07CF9062000F079F945208B
:101C600000F076F9872000F073F9322000F070F967
:101C70000A2000F06DF9072000F06AF9022000F058
:101C800067F9072000F064F9052000F061F90020F1
:101C900000F05EF9E12000F04BF9002000F058F967
:101CA000252000F055F9272000F052F9052000F01A
:101CB0004FF9102000F04CF9092000F049F93A20C2
:101CC00000F046F9782000F043F94D2000F040F98B
:101CD000052000F03DF9182000F03AF90D2000F041
:101CE00037F9382000F034F93A2000F031F91F209C
:101CF00000F02EF92A2000F01BF9002000F028F94E
:101D0000002000F025F9002000F022F9EF2000F07B
:101D10001FF92B2000F00CF9002000F019F9002029
:101D200000F016F9012000F013F93F2000F010F93F
:101D3000B72000F0FDF8072000F00AF9B62000F007
:101D4000F7F80A2000F004F9822000F001F92720BA
:101D500000F0FEF8002000F0FBF8112000F0E8F899
:101D6000642001F013FB292000F0E2F8642001F068
:101D70000DFB2C2000F0DCF800BFBD4680BD00BF8D
:101D80001C0200201D0200201E0200201F02002055
:101D900080B483B000AF7860044A7B68936000BF72
:101DA0000C37BD465DF8047B704700BF180000206B
:101DB00080B582B000AF0346FB712D4AFB791371E9
:101DC000362000F0B5F82A4B1B79032B3ED801A230
:101DD00052F823F0E51D0008191E0008FF1D000839
:101DE000331E0008234B1B78184600F0B1F8204B37
:101DF000F0221A801E4B4FF4A0725A8027E01E4B2F
:101E00001B78184600F0A4F8194BF0221A80184BE2
:101E10004FF4A0725A801AE0184B1B78184600F055
:101E200097F8134B4FF4A0721A80114BF0225A808E
:101E30000DE0134B1B78184600F08AF80C4B4FF45A
:101E4000A0721A800A4BF0225A8000E000BF084BB3
:101E50001B88013B9AB2064B5B88013B9BB2002179
:101E6000002000F00FF800BF0837BD4680BD00BF5E
:101E7000100000201C0200201E0200201D02002075
:101E80001F02002090B583B000AF044608461146FB
:101E90001A462346FB800346BB800B467B801346D5
:101EA0003B802A2000F044F8FB881B0A9BB21846AE
:101EB00000F04EF8FB88DBB29BB2184600F048F801
:101EC0007B881B0A9BB2184600F042F87B88DBB285
:101ED0009BB2184600F03CF82B2000F029F8BB8894
:101EE0001B0A9BB2184600F033F8BB88DBB29BB2EA
:101EF000184600F02DF83B881B0A9BB2184600F0EC
:101F000027F83B88DBB29BB2184600F021F82C2062
:101F100000F00EF800BF0C37BD4690BD80B500AF95
:101F2000012000F005F8322001F030FA00BF80BD3A
:101F300080B483B000AF0346FB714FF0C043FA7921
:101F400092B21A8000BF0C37BD465DF8047B704723
:101F500080B483B000AF0346FB80044AFB88138043
:101F600000BF0C37BD465DF8047B70470000086079
:101F700090B484B000AF0446084611461A46234682
:101F8000FB710346BB710B467B7113463B7100230B
:101F9000FB733B7F002B03D0FB7B43F00403FB73FD
:101FA0003B7E002B03D0FB7B43F00803FB733B79A4
:101FB000002B03D0FB7B43F01003FB737B79002BDA
:101FC00003D0FB7B43F02003FB73BB79002B03D0D2
:101FD000FB7B43F04003FB73FB79002B03D0FB7BBF
:101FE00063F07F03FB73FB7B18461037BD4690BC44
:101FF0007047000080B483B000AF7860044A7B680B
:102000001A607B6818460C37BD465DF8047B704744
:1020100068C9000880B483B000AF7860044A7B6868
:102020001A607B6818460C37BD465DF8047B704724
:1020300068C9000880B582B000AF78607868FFF7A3
:10204000E9FF7421786805F053F87B681846083773
:10205000BD4680BD80B582B000AF7860FFF724FD3B
:1020600001220221064802F035F80120FFF7A0FE08
:102070000448FFF78DFE00BF0837BD4680BD00BF96
:10208000000402400800002080B485B000AF7860F2
:102090000323FB607B68033323F0030318461437E4
:1020A000BD465DF8047B704780B483B000AF7860B4
:1020B0007B681B6818460C37BD465DF8047B70478B
:1020C00084B0B0B582B000AF786007F11C0080E842
:1020D0000E007B681D4607F11C040FCC0FC523685A
:1020E0002B607B6818331846FFF74DFC7B68184659
:1020F0000837BD46BDE8B04004B0704780B582B037
:1021000000AF78603960386805F01AF80346184661
:102110000837BD4680BD80B582B000AF78603960B9
:10212000386805F015F800BF0837BD4680BD90B58A
:102130008DB002AFF860B9603A71FB68214618466D
:1021400000F035F8FB6803F1080407F11403BA68DE
:10215000F968184600F012F86A4607F1200393E880
:10216000030082E8030007F114030ECB2046FFF7BB
:10217000A7FFFB6818462C37BD4690BD80B586B0DA
:1021800000AFF860B9607A607868FFF77DFF78612A
:10219000BB687969184600F016F803467A69194653
:1021A000F868FFF7C6FBF8681837BD4680BD80B4F5
:1021B00083B000AF786039707B6818460C37BD4635
:1021C0005DF8047B704780B582B000AF78603960FD
:1021D0007B6839681846FFF791FF034618460837B1
:1021E000BD4680BD80B500AF1A464FF4006102487D
:1021F000FFF79DFF00BF80BD2002002080B500AF2B
:10220000024800F005F800BF80BD00BF200200209A
:1022100080B582B000AF7860786800F00AF87B681B
:1022200008331846FFF7D3FB7B6818460837BD46CE
:1022300080BD90B583B000AF78607C687B68083360
:102240001846FFF7CFFB03461846FFF72DFF03465E
:102250001946204600F004F800BF0C37BD4690BD7B
:1022600080B582B000AF786039603B68002B04D045
:102270007B6839681846FFF74EFF00BF0837BD4638
:1022800080BD80B500AFFFF7ADFF80BD80B500AF6A
:10229000FFF7B4FF80BD000080B500AF01F034F857
:1022A00000F032F800F086F900F02EF900F030FA74
:1022B00000F09EF800F0FAF800F0CAF801224FF49E
:1022C00080510B4801F006FF0A48FFF7C3FE0A4899
:1022D00000F0B8FE09490A48FFF71CF80949084808
:1022E000FFF704F94FF4FA7001F050F800BFF5E77A
:1022F000000C0240D01B00209C020020E4020020C1
:10230000BC050020D0B8000880B594B000AF07F13C
:10231000200330220021184605F0B2FF07F10C031C
:1023200000221A605A609A60DA601A610023BB606A
:102330002D4B1B6C2C4A43F0805313642A4B1B6CAF
:1023400003F08053BB60BB6800237B60274B1B6896
:10235000264A43F480431360244B1B6803F48043F4
:102360007B607B6801233B624FF480337B620223F6
:10237000BB634FF48003FB6304233B64A8237B64AB
:102380000223BB640423FB6407F12003184601F019
:10239000BBFE0346002B14BF01230023DBB2002B3E
:1023A00001D000F079FA0F23FB6002233B61002388
:1023B0007B614FF4A053BB614FF48053FB6107F185
:1023C0000C030521184602F017F90346002B14BF31
:1023D00001230023DBB2002B01D000F05DFA00BF27
:1023E0005037BD4680BD00BF00380240007000403D
:1023F00080B500AF144B154A1A60134B4FF4964248
:102400005A60114B4FF480529A600F4B0022DA60F1
:102410000D4B00221A610C4B0C225A610A4B002210
:102420009A61094B0022DA61074802F01BFE03465D
:10243000002B14BF01230023DBB2002B01D000F0DE
:102440002BFA00BF80BD00BF5402002000100140E5
:1024500080B500AF134B144A1A60124B4FF4E132AF
:102460005A60104B00229A600E4B0022DA600D4B2E
:1024700000221A610B4B0C225A610A4B00229A610E
:10248000084B0022DA61074802F0ECFD0346002BFE
:1024900014BF01230023DBB2002B01D000F0FCF9B4
:1024A00000BF80BD9C0200200044004080B500AF0A
:1024B000134B144A1A60124B4FF496425A60104B59
:1024C00000229A600E4B0022DA600D4B00221A6146
:1024D0000B4B0C225A610A4B00229A61084B0022D6
:1024E000DA61074802F0BEFD0346002B14BF01234A
:1024F0000023DBB2002B01D000F0CEF900BF80BD7D
:10250000E40200200014014080B582B000AF002337
:102510007B60274B1B6B264A43F480031363244BD9
:102520001B6B03F480037B607B6800233B60204BC4
:102530001B6B1F4A43F4001313631D4B1B6B03F407
:1025400000133B603B6800220521102000F0FAFFD9
:10255000102001F013F800220521112000F0F2FFF5
:10256000112001F00BF800220521392000F0EAFFCC
:10257000392001F003F8002205213A2000F0E2FFA3
:102580003A2000F0FBFF00220521452000F0DAFF91
:10259000452000F0F3FF00220521462000F0D2FF85
:1025A000462000F0EBFF00BF0837BD4680BD00BFEE
:1025B0000038024080B58CB000AF07F11C03002248
:1025C0001A605A609A60DA601A610023BB614B4B53
:1025D0001B6B4A4A43F010031363484B1B6B03F019
:1025E0001003BB61BB6900237B61444B1B6B434AF7
:1025F00043F004031363414B1B6B03F004037B6143
:102600007B6900233B613D4B1B6B3C4A43F08003DD
:1026100013633A4B1B6B03F080033B613B69002360
:10262000FB60364B1B6B354A43F001031363334B9E
:102630001B6B03F00103FB60FB680023BB602F4BA7
:102640001B6B2E4A43F0020313632C4B1B6B03F0EE
:102650000203BB60BB6800237B60284B1B6B274ACF
:1026600043F008031363254B1B6B03F008037B60E7
:102670007B6800224021224801F02CFD002202212B
:10268000204801F027FD1823FB6100233B62002353
:102690007B6207F11C0319461B4801F07FFB4023B6
:1026A000FB6101233B6200237B620023BB6207F1D5
:1026B0001C031946124801F071FB0223FB61012340
:1026C0003B6200237B620023BB6207F11C031946B7
:1026D0000C4801F063FB4FF48053FB6101233B6224
:1026E00000237B620023BB6207F11C0319460748E5
:1026F00001F054FB00BF3037BD4680BD00380240BA
:10270000000002400004024000100240000C0240A1
:1027100080B588B000AF3B1D00221A605A609A60F5
:10272000DA601A615A619A61294B4FF020421A60AF
:10273000274B284A5A60264B00229A60244B0022DD
:10274000DA60234B00221A61214B10225A61204B80
:1027500000229A611E4B0022DA611D4B00221A6290
:102760001B4B00225A621A4B4FF480529A62184B4C
:102770000022DA62164B00221A63154B00225A63BC
:10278000134B00229A63124B00225A6401237B6090
:102790000F23BB600523FB6000233B6110237B619B
:1027A0001123BB610023FB613B1D00221946084831
:1027B00002F074F90346002B14BF01230023DBB29F
:1027C000002B01D000F068F800BF2037BD4680BD67
:1027D0006C050020040100A080B582B000AF7860D5
:1027E0007B681B68084A934202D10848FEF721FF24
:1027F0007B681B68064A934202D10648FEF7DDFC5F
:1028000000BF0837BD4680BD00140140BC05002054
:1028100000100140CC0B002080B582B000AF786082
:102820000B467B807B681B680D4A934204D17B88F2
:1028300019460C48FEF76EFC7B681B680A4A9342F7
:102840000AD17B8819460948FEF7A0FE084B1B6891
:102850000121184603F0B8FF00BF0837BD4680BD10
:1028600000100140CC0B002000140140BC050020EA
:10287000441C002080B582B000AF78607B681B6884
:10288000044A934201D100F061FD00BF0837BD4604
:1028900080BD00BF0010004080B400AF72B600BF22
:1028A00000BFFDE780B500AF0848FEF719FD0848F6
:1028B000FEF716FC06490748FEF74CFF0648FFF7EF
:1028C000A9F80648FFF796FB00BF80BDBC050020B5
:1028D000CC0B0020DC130020A0190020D01B00200E
:1028E00080B500AF0548FFF795FB0548FFF7A6F850
:1028F0000448FEF7F9FF00BF80BD00BFD01B0020D9
:10290000A0190020DC13002080B500AFFFF7CAFF3C
:1029100080BD80B500AFFFF7E3FF80BD80B582B01A
:1029200000AF00237B60124B5B6C114A43F4804381
:1029300053640F4B5B6C03F480437B607B68002324
:102940003B600B4B1B6C0A4A43F080531364084BEB
:102950001B6C03F080533B603B6800220F216FF03B
:10296000010000F0EFFD00BF0837BD4680BD00BF8D
:102970000038024080B58EB000AF786007F12403C4
:1029800000221A605A609A60DA601A617B681B68DC
:10299000974A934240F0948000233B62954B5B6CD6
:1029A000944A43F010035364924B5B6C03F01003A2
:1029B0003B623B6A0023FB618E4B1B6B8D4A43F0ED
:1029C000010313638B4B1B6B03F00103FB61FB697A
:1029D0004FF4C0637B620223BB620023FB620323CC
:1029E0003B6307237B6307F124031946824801F008
:1029F000D5F9824B824A1A60804B4FF000625A60D0
:102A00007E4B00229A607D4B0022DA607B4B4FF4B4
:102A100080621A61794B00225A61784B00229A61D8
:102A2000764B0022DA61754B00221A62734B00224A
:102A30005A62724800F0B0FD0346002B01D0FFF748
:102A40002BFF7B686D4ADA636C4A7B6893636D4B3E
:102A50006D4A1A606B4B4FF000625A60694B40221E
:102A60009A60684B0022DA60664B4FF480621A610C
:102A7000644B4FF400625A61624B4FF400529A610A
:102A8000604B0022DA615F4B00221A625D4B00222C
:102A90005A625C4800F080FD0346002B01D0FFF72E
:102AA000FBFE7B68574A9A63564A7B689363002211
:102AB0000521252000F046FD252000F05FFD45E1C1
:102AC0007B681B68514A934240F0AA800023BB6197
:102AD000484B1B6C474A43F400331364454B1B6C53
:102AE00003F40033BB61BB6900237B61414B1B6B6B
:102AF000404A43F0010313633E4B1B6B03F0010399
:102B00007B617B690C237B620223BB620023FB6237
:102B100003233B6307237B6307F1240319463648ED
:102B200001F03CF93A4B3B4A1A60394B4FF00062D6
:102B30005A60374B00229A60354B0022DA60344BE2
:102B40004FF480621A61324B00225A61304B0022EE
:102B50009A612F4B4FF48072DA612D4B00221A627A
:102B60002B4B00225A622A4800F016FD0346002B28
:102B700001D0FFF791FE7B68254ADA63244A7B681F
:102B80009363254B254A1A60234B4FF000625A602D
:102B9000214B40229A60204B0022DA601E4B4FF4FA
:102BA00080621A611C4B00225A611B4B00229A6101
:102BB000194B0022DA61184B00221A62164B0022D0
:102BC0005A62154800F0E8FC0346002B01D0FFF7DD
:102BD00063FE7B68104A9A630F4A7B689363002206
:102BE0000521262000F0AEFC262000F0C7FCADE059
:102BF0000010014000380240000002402C03002079
:102C0000406402408C030020B8640240004400404D
:102C1000EC030020886002404C040020A0600240C9
:102C20007B681B684B4A934240F0908000233B61D5
:102C3000494B5B6C484A43F020035364464B5B6C42
:102C400003F020033B613B690023FB60424B1B6B9D
:102C5000414A43F0040313633F4B1B6B03F004032F
:102C6000FB60FB68C0237B620223BB620023FB6224
:102C700003233B6308237B6307F12403194637488A
:102C800001F08CF8364B374A1A60354B4FF0206212
:102C90005A60334B00229A60314B0022DA60304B8D
:102CA0004FF480621A612E4B00225A612C4B002295
:102CB0009A612B4B0022DA61294B00221A62284BC1
:102CC00000225A62264800F067FC0346002B01D020
:102CD000FFF7E2FD7B68224ADA63214A7B6893634F
:102CE000214B224A1A60204B4FF020625A601E4B43
:102CF00040229A601C4B0022DA601B4B4FF480622A
:102D00001A61194B00225A61174B00229A61164B27
:102D10000022DA61144B00221A62134B00225A621D
:102D2000114800F039FC0346002B01D0FFF7B4FD39
:102D30007B680D4A9A630C4A7B68936300220521E5
:102D4000472000F0FFFB472000F018FC00BF383799
:102D5000BD4680BD0014014000380240000802401A
:102D6000AC040020286402400C050020A06402404E
:102D700080B586B000AF3B1D00221A605A609A6091
:102D8000DA601A611C4B1B68002B31D11A4B0122EF
:102D90001A6000233B60194B9B6B184A43F00103F8
:102DA0009363164B9B6B03F001033B603B684FF64C
:102DB00080737B600223BB600023FB6003233B61C5
:102DC0000C237B613B1D19460D4800F0E7FF4EF2D6
:102DD000B3737B600223BB600023FB6003233B6172
:102DE0000C237B613B1D1946064800F0D7FF00E02D
:102DF00000BF1837BD4680BD481C00200038024087
:102E000000100240000C024080B582B000AF786034
:102E1000FFF7AEFF00BF0837BD4680BD80B58EB05E
:102E200000AF78600023FB620023BB620023FB60DD
:102E3000334B1B6C324A43F010031364304B1B6C52
:102E400003F01003FB60FB6807F1100207F11403A5
:102E50001146184601F0F0FD3B6AFB62FB6A002B4D
:102E600003D101F0C1FD786304E001F0BDFD03462C
:102E70005B007B637B6B234AA2FB03239B0C013B20
:102E8000BB62214B214A1A601F4B40F2E732DA60E5
:102E90001D4ABB6A53601C4B00221A611A4B002268
:102EA0009A60194B00229A61174801F03FFE0346D1
:102EB00087F8333097F83330002B1BD1124801F0DC
:102EC0008FFE034687F8333097F83330002B11D14B
:102ED000362000F053FB7B680F2B08D8002279685E
:102EE000362000F02FFB0A4A7B68136002E00123C2
:102EF00087F8333097F8333018463837BD4680BDF1
:102F00000038024083DE1B434C1C002000100040B0
:102F10002C00002080B400AF00BFFDE780B400AFFC
:102F200000BFFDE780B400AF00BFFDE780B400AF95
:102F300000BFFDE780B400AF00BFFDE780B400AF85
:102F400000BFBD465DF8047B7047000080B500AF50
:102F5000024800F0B9FC00BF80BD00BFEC030020B8
:102F600080B500AF024800F0AFFC00BF80BD00BFDD
:102F70004C04002080B500AF024802F03DFA00BFCB
:102F800080BD00BF5402002080B582B000AF0E4B60
:102F90001B681B6803F01003102B0DD100237B600E
:102FA000094B1B681B687B60074B1B685B687B6079
:102FB0007B68054800F076F8034802F01DFA00BF70
:102FC0000837BD4680BD00BF9C02002080B500AF21
:102FD000024801F075FE00BF80BD00BF4C1C002000
:102FE00080B500AF024800F06FFC00BF80BD00BF9D
:102FF000AC04002080B500AF024800F065FC00BFC3
:1030000080BD00BF2C03002080B500AF024800F057
:103010005BFC00BF80BD00BF0C05002080B500AF89
:10302000024800F051FC00BF80BD00BF8C030020AF
:1030300080B500AF024802F0DFF900BF80BD00BFDD
:10304000E402002080B582B000AF7860134B1B68AB
:10305000002B1ED1114A7B681360104B1B684FF484
:10306000FA720F49184602F0C9F80C4B1B681B682E
:10307000DA680A4B1B681B6842F01002DA60074BE3
:103080001B681B68DA68054B1B681B6822F020026E
:10309000DA6000BF0837BD4680BD00BF8C1E00202F
:1030A000981C002080B584B000AF78607B681B68F6
:1030B000104A93421AD1786802F0C5F87B68DB6B3E
:1030C0001B685B689BB2C3F5FA73FB81FB890A4AF4
:1030D0000021D154094B01221A70094B01221A60B8
:1030E0004FF4FA720449786802F088F800BF10378C
:1030F000BD4680BD00440040981C0020941C002068
:103100005002002080B400AF01231846BD465DF890
:10311000047B704780B582B000AF7860396005F0FD
:1031200055F9034616221A604FF0FF331846083748
:10313000BD4680BD80B582B000AF78604FF0FF31F2
:103140007868FFF7E7FF00BFFDE780B586B000AF06
:10315000F860B9607A6000237B610AE0AFF3008019
:103160000146BB685A1CBA60CAB21A707B69013347
:103170007B617A697B689A42F0DB7B681846183776
:10318000BD4680BD80B586B000AFF860B9607A609A
:1031900000237B6109E0BB685A1CBA601B781846A3
:1031A000AFF300807B6901337B617A697B689A4267
:1031B000F1DB7B6818461837BD4680BD80B483B00C
:1031C00000AF78604FF0FF3318460C37BD465DF80E
:1031D000047B704780B483B000AF786039603B688F
:1031E0004FF400525A60002318460C37BD465DF874
:1031F000047B704780B483B000AF78600123184629
:103200000C37BD465DF8047B704780B485B000AFD5
:10321000F860B9607A60002318461437BD465DF83F
:10322000047B704780B586B000AF7860144A154BB8
:10323000D31A7B617B693B61134B1B68002B02D166
:10324000114B124A1A60104B1A687B6813443A6992
:103250009A4207D205F0BAF803460C221A604FF0E2
:10326000FF3309E0084B1B68FB60074B1A687B685B
:103270001344054A1360FB6818461837BD4680BDE5
:103280000000022000040000901E00209024002076
:1032900080B400AF064BD3F88830054A43F470037E
:1032A000C2F8883000BFBD465DF8047B704700BFA0
:1032B00000ED00E0DFF834D0FFF7EAFF0C480D49DD
:1032C0000D4A002302E0D458C4500433C4188C4281
:1032D000F9D30A4A0A4C002301E013600432A242E7
:1032E000FBD305F079F8FEF7D7FF70470000022006
:1032F0000000002000020020DCCD000800020020B9
:1033000090240020FEE7000080B500AF0E4B1B6844
:103310000D4A43F4007313600B4B1B680A4A43F4D5
:1033200080631360084B1B68074A43F48073136083
:10333000032000F0FCF80F20FFF770FDFFF7EEFA16
:103340000023184680BD00BF003C024080B400AF9F
:10335000064B1B781A46064B1B681344044A13603D
:1033600000BFBD465DF8047B704700BF3000002001
:10337000941E002080B400AF034B1B681846BD4666
:103380005DF8047B704700BF941E002080B584B0B8
:1033900000AF7860FFF7EEFFB8607B68FB60FB680A
:1033A000B3F1FF3F05D00A4B1B781A46FB68134464
:1033B000FB6000BFFFF7DEFF0246BB68D31AFA6866
:1033C0009A42F7D800BF00BF1037BD4680BD00BF8E
:1033D0003000002080B485B000AF78607B6803F0D7
:1033E0000703FB600C4BDB68BB60BA684FF6FF035A
:1033F0001340BB60FB681A02BB68134343F0BF6312
:1034000043F40033BB60044ABB68D36000BF143789
:10341000BD465DF8047B704700ED00E080B400AF6E
:10342000044BDB681B0A03F007031846BD465DF832
:10343000047B704700ED00E080B483B000AF03462A
:10344000FB7197F90730002B0BDBFB7903F01F02B0
:10345000074997F907305B09012000FA02F241F8A9
:10346000232000BF0C37BD465DF8047B704700BFCA
:1034700000E100E080B483B000AF03463960FB7127
:1034800097F90730002B0ADB3B68DAB20C4997F951
:1034900007301201D2B20B4483F800230AE03B68E4
:1034A000DAB20849FB7903F00F03043B1201D2B2F0
:1034B0000B441A7600BF0C37BD465DF8047B70479D
:1034C00000E100E000ED00E080B489B000AFF860FA
:1034D000B9607A60FB6803F00703FB61FB69C3F125
:1034E0000703042B28BF0423BB61FB690433062BAD
:1034F00002D9FB69033B00E000237B614FF0FF3200
:10350000BB6902FA03F3DA43BB681A407B699A404D
:103510004FF0FF317B6901FA03F3D9437B680B401D
:10352000134318462437BD465DF8047B704780B5C9
:1035300082B000AF78607868FFF74CFF00BF0837B3
:10354000BD4680BD80B586B000AF0346B9607A60E5
:10355000FB7300237B61FFF761FF78617A68B968CC
:103560007869FFF7B1FF024697F90F301146184608
:10357000FFF780FF00BF1837BD4680BD80B582B021
:1035800000AF0346FB7197F907301846FFF754FF69
:1035900000BF0837BD4680BD80B586B000AF7860FB
:1035A00000237B61FFF7E6FE38617B68002B01D1C9
:1035B000012399E07B68022283F835207B68002292
:1035C00083F834207B681B681A687B681B6822F0CC
:1035D00001021A600FE0FFF7CDFE02463B69D31AE5
:1035E000052B08D97B6820225A657B68032283F863
:1035F0003520032378E07B681B681B6803F0010318
:10360000002BE8D17B681B681B687B617A69384BAB
:1036100013407B617B685A687B689B681A437B68B0
:10362000DB681A437B681B691A437B685B691A4332
:103630007B689B691A437B68DB691A437B681B6A5A
:1036400013437A6913437B617B685B6A042B07D160
:103650007B68DA6A7B681B6B13437A6913437B616F
:103660007B681B687A691A607B681B685B697B6191
:103670007B6923F007037B617B685B6A7A6913438C
:103680007B617B685B6A042B17D17B689B6A7A69D4
:1036900013437B617B68DB6A002B0ED0786800F0F7
:1036A00001FB0346002B08D07B6840225A657B68EB
:1036B000012283F83520012316E07B681B687A69B4
:1036C0005A61786800F0B8FA0346FB607B68DB6DEE
:1036D0003F229A40FB689A607B6800225A657B68AB
:1036E000012283F83520002318461837BD4680BDD7
:1036F0003F8010F080B586B000AFF860B9607A60A6
:103700003B600023FB75FB689B6D3B61FB6893F896
:103710003430012B01D1022340E0FB68012283F801
:103720003420FB6893F83530DBB2012B2FD1FB68D6
:10373000022283F83520FB6800225A653B687A68CC
:10374000B968F86800F04AFAFB68DB6D3F229A40DE
:103750003B699A60FB681B681A68FB681B6842F04B
:1037600016021A60FB681B6C002B07D0FB681B68F5
:103770001A68FB681B6842F008021A60FB681B6845
:103780001A68FB681B6842F001021A6005E0FB68DA
:10379000002283F834200223FB75FB7D184618377E
:1037A000BD4680BD80B584B000AF78607B689B6DFE
:1037B000FB60FFF7DFFDB8607B6893F83530DBB264
:1037C000022B08D07B6880225A657B68002283F830
:1037D0003420012352E07B681B681A687B681B68F1
:1037E00022F016021A607B681B685A697B681B68A6
:1037F00022F080025A617B681B6C002B03D17B682E
:103800009B6C002B07D07B681B681A687B681B6861
:1038100022F008021A607B681B681A687B681B68C4
:1038200022F001021A6013E0FFF7A4FD0246BB6814
:10383000D31A052B0CD97B6820225A657B6803229A
:1038400083F835207B68002283F83420032315E0B9
:103850007B681B681B6803F00103002BE4D17B68C5
:10386000DB6D3F229A40FB689A607B68012283F8F7
:1038700035207B68002283F8342000231846103757
:10388000BD4680BD80B483B000AF78607B6893F89C
:103890003530DBB2022B04D07B6880225A650123CD
:1038A0000CE07B68052283F835207B681B681A686A
:1038B0007B681B6822F001021A60002318460C374F
:1038C000BD465DF8047B704780B586B000AF786078
:1038D0000023BB608E4B1B688E4AA2FB03239B0A0E
:1038E0007B617B689B6D3B613B691B68FB607B6810
:1038F000DB6D08229A40FB681340002B1AD07B68CE
:103900001B681B6803F00403002B13D07B681B6843
:103910001A687B681B6822F004021A607B68DB6D02
:1039200008229A403B699A607B685B6D43F0010214
:103930007B685A657B68DB6D01229A40FB68134007
:10394000002B12D07B681B685B6903F08003002B9F
:103950000BD07B68DB6D01229A403B699A607B68E3
:103960005B6D43F002027B685A657B68DB6D042265
:103970009A40FB681340002B12D07B681B681B68C1
:1039800003F00203002B0BD07B68DB6D04229A400E
:103990003B699A607B685B6D43F004027B685A6503
:1039A0007B68DB6D10229A40FB681340002B43D0EC
:1039B0007B681B681B6803F00803002B3CD07B6806
:1039C000DB6D10229A403B699A607B681B681B681C
:1039D00003F48023002B18D07B681B681B6803F45A
:1039E0000023002B08D17B681B6C002B24D07B6844
:1039F0001B6C786898471FE07B689B6C002B1BD082
:103A00007B689B6C7868984716E07B681B681B682E
:103A100003F48073002B07D17B681B681A687B68EE
:103A20001B6822F008021A607B681B6C002B03D015
:103A30007B681B6C786898477B68DB6D20229A4016
:103A4000FB681340002B00F08F807B681B681B68AD
:103A500003F01003002B00F087807B68DB6D2022D1
:103A60009A403B699A607B6893F83530DBB2052B4E
:103A700036D17B681B681A687B681B6822F01602C7
:103A80001A607B681B685A697B681B6822F0800299
:103A90005A617B681B6C002B03D17B689B6C002BED
:103AA00007D07B681B681A687B681B6822F00802D5
:103AB0001A607B68DB6D3F229A403B699A607B68A5
:103AC000012283F835207B68002283F834207B684C
:103AD0001B6D002B7ED07B681B6D7868984779E062
:103AE0007B681B681B6803F48023002B1DD07B6858
:103AF0001B681B6803F40023002B0DD17B685B6CF3
:103B0000002B31D07B685B6C786898472CE000BF55
:103B100028000020B5814E1B7B68DB6B002B23D077
:103B20007B68DB6B786898471EE07B681B681B68C6
:103B300003F48073002B0FD17B681B681A687B68C5
:103B40001B6822F010021A607B68012283F835207E
:103B50007B68002283F834207B68DB6B002B03D06A
:103B60007B68DB6B786898477B685B6D002B32D095
:103B70007B685B6D03F00103002B22D07B6805227C
:103B800083F835207B681B681A687B681B6822F005
:103B900001021A60BB680133BB607A699A4207D39D
:103BA0007B681B681B6803F00103002BF2D100E067
:103BB00000BF7B68012283F835207B68002283F8F0
:103BC00034207B68DB6C002B05D07B68DB6C78686D
:103BD000984700E000BF1837BD4680BD80B485B06F
:103BE00000AFF860B9607A603B60FB681B681A68D8
:103BF000FB681B6822F480221A60FB681B683A6825
:103C00005A60FB689B68402B08D1FB681B687A6888
:103C10009A60FB681B68BA68DA6007E0FB681B689B
:103C2000BA689A60FB681B687A68DA6000BF14376C
:103C3000BD465DF8047B704780B485B000AF786006
:103C40007B681B68DBB2103B144AA2FB03231B09F1
:103C5000FB60134AFB6813441B781A467B68DA65DD
:103C6000FB68032B09D97B681B6823F47F7323F05F
:103C700003031A1D7B689A6507E07B681B6823F4C1
:103C80007F7323F003037A6893657B689B6D184606
:103C90001437BD465DF8047B704700BFABAAAAAAE3
:103CA00088C9000880B485B000AF78600023FB733A
:103CB0007B689B6ABB607B689B69002B1FD1BB68DC
:103CC000032B56D801A252F823F000BFDD3C0008B8
:103CD000EF3C0008DD3C0008733D00087B68DB6AB0
:103CE00003F08073002B46D00123FB7343E07B6815
:103CF000DB6AB3F1C07F40D10123FB733DE07B68F9
:103D00009B69B3F5005F21D1BB68032B37D801A2B3
:103D100052F823F0253D00082B3D0008253D000802
:103D20003D3D00080123FB7330E07B68DB6A03F054
:103D30008073002B25D00123FB7322E07B68DB6AB4
:103D4000B3F1C07F1FD10123FB731CE0BB68022BC2
:103D500003D9BB68032B03D018E00123FB7315E0E4
:103D60007B68DB6A03F08073002B0ED00123FB73AA
:103D70000BE000BF0AE000BF08E000BF06E000BFA4
:103D800004E000BF02E000BF00E000BFFB7B18467C
:103D90001437BD465DF8047B704700BF80B489B01E
:103DA00000AF7860396000237B6100233B61002312
:103DB000BB610023FB616BE10122FB6902FA03F3A3
:103DC0007B613B681B687A6913403B613A697B6998
:103DD0009A4240F05A813B685B6803F00303012B71
:103DE00005D03B685B6803F00303022B30D17B688E
:103DF0009B68BB61FB695B00032202FA03F3DB43B0
:103E0000BA691340BB613B68DA68FB695B0002FA80
:103E100003F3BA691343BB617B68BA699A607B6834
:103E20005B68BB610122FB6902FA03F3DB43BA69F9
:103E30001340BB613B685B681B0903F00102FB692F
:103E400002FA03F3BA691343BB617B68BA695A602B
:103E50003B685B6803F00303032B17D07B68DB68C8
:103E6000BB61FB695B00032202FA03F3DB43BA691F
:103E70001340BB613B689A68FB695B0002FA03F37D
:103E8000BA691343BB617B68BA69DA603B685B68F7
:103E900003F00303022B23D1FB69DA087B680832A5
:103EA00053F82230BB61FB6903F007039B000F222C
:103EB00002FA03F3DB43BA691340BB613B681A693A
:103EC000FB6903F007039B0002FA03F3BA6913438B
:103ED000BB61FB69DA087B680832B96943F82210D4
:103EE0007B681B68BB61FB695B00032202FA03F37A
:103EF000DB43BA691340BB613B685B6803F00302B4
:103F0000FB695B0002FA03F3BA691343BB617B6888
:103F1000BA691A603B685B6803F44033002B00F019
:103F2000B4800023FB60604B5B6C5F4A43F48043CA
:103F300053645D4B5B6C03F48043FB60FB685B4A3E
:103F4000FB699B08023352F82330BB61FB6903F025
:103F500003039B000F2202FA03F3DB43BA69134009
:103F6000BB617B68524A93422BD07B68514A934293
:103F700025D07B68504A93421FD07B684F4A9342BA
:103F800019D07B684E4A934213D07B684D4A9342C6
:103F90000DD07B684C4A934207D07B684B4A9342D2
:103FA00001D107230EE008230CE006230AE00523D5
:103FB00008E0042306E0032304E0022302E00123D7
:103FC00000E00023FA6902F0030292009340BA690C
:103FD0001343BB613549FB699B080233BA6941F859
:103FE00023203B4B9B68BB613B69DB43BA691340B1
:103FF000BB613B685B6803F48013002B03D0BA6994
:104000003B691343BB61324ABB699360304BDB6849
:10401000BB613B69DB43BA691340BB613B685B68CA
:1040200003F40013002B03D0BA693B691343BB614F
:10403000274ABB69D360264B5B68BB613B69DB43A6
:10404000BA691340BB613B685B6803F40033002B23
:1040500003D0BA693B691343BB611D4ABB69536016
:104060001B4B1B68BB613B69DB43BA691340BB61F7
:104070003B685B6803F48033002B03D0BA693B696B
:104080001343BB61124ABB691360FB690133FB61D7
:10409000FB690F2B7FF690AE00BF00BF2437BD46F3
:1040A0005DF8047B704700BF0038024000380140D3
:1040B000000002400004024000080240000C0240E0
:1040C000001002400014024000180240001C024090
:1040D000003C014080B483B000AF78600B467B8029
:1040E00013467B707B78002B03D07A887B689A61BB
:1040F00003E07B881A047B689A6100BF0C37BD46D9
:104100005DF8047B7047000080B586B000AF786032
:104110007B68002B01D1012367E27B681B6803F0F9
:104120000103002B75D0884B9B6803F00C03042B14
:104130000CD0854B9B6803F00C03082B12D1824BEB
:104140005B6803F48003B3F5800F0BD17E4B1B68D3
:1041500003F40033002B5BD07B685B68002B57D1E6
:10416000012342E27B685B68B3F5803F06D1764B62
:104170001B68754A43F4803313601DE07B685B68FD
:10418000B3F5A02F0CD1704B1B686F4A43F480230A
:1041900013606D4B1B686C4A43F4803313600BE073
:1041A000694B1B68684A23F480331360664B1B68B5
:1041B000654A23F4802313607B685B68002B13D06F
:1041C000FFF7D8F8386108E0FFF7D4F802463B69FA
:1041D000D31A642B01D9032307E25B4B1B6803F45A
:1041E0000033002BF0D014E0FFF7C4F8386108E08A
:1041F000FFF7C0F802463B69D31A642B01D90323A9
:10420000F3E1514B1B6803F40033002BF0D100E0C5
:1042100000BF7B681B6803F00203002B63D04A4B8E
:104220009B6803F00C03002B0BD0474B9B6803F0FB
:104230000C03082B1CD1444B5B6803F48003002B58
:1042400016D1414B1B6803F00203002B05D07B689D
:10425000DB68012B01D00123C7E13B4B1B6823F036
:10426000F8027B681B69DB00374913430B603AE0B7
:104270007B68DB68002B20D0344B01221A60FFF7EB
:1042800079F8386108E0FFF775F802463B69D31A00
:10429000022B01D90323A8E12B4B1B6803F0020377
:1042A000002BF0D0284B1B6823F0F8027B681B69B9
:1042B000DB00254913430B6015E0244B00221A60F4
:1042C000FFF758F8386108E0FFF754F802463B69F9
:1042D000D31A022B01D9032387E11B4B1B6803F080
:1042E0000203002BF0D17B681B6803F00803002B4E
:1042F00036D07B685B69002B16D0154B01221A6003
:10430000FFF738F8386108E0FFF734F802463B69F8
:10431000D31A022B01D9032367E10B4B5B6F03F028
:104320000203002BF0D01BE0094B00221A60FFF7BC
:1043300021F838610EE0FFF71DF802463B69D31AF9
:10434000022B07D9032350E1003802400000474206
:10435000800E4742884B5B6F03F00203002BEAD1CB
:104360007B681B6803F00403002B00F09780002398
:10437000FB75814B1B6C03F08053002B0FD1002386
:10438000BB607D4B1B6C7C4A43F0805313647A4BBB
:104390001B6C03F08053BB60BB680123FB75774B3C
:1043A0001B6803F48073002B18D1744B1B68734A8D
:1043B00043F480731360FEF7DDFF386108E0FEF719
:1043C000D9FF02463B69D31A022B01D903230CE122
:1043D0006A4B1B6803F48073002BF0D07B689B68EA
:1043E000012B06D1644B1B6F634A43F00103136733
:1043F0001CE07B689B68052B0CD15F4B1B6F5E4AF2
:1044000043F0040313675C4B1B6F5B4A43F00103EB
:1044100013670BE0584B1B6F574A23F001031367D8
:10442000554B1B6F544A23F0040313677B689B684A
:10443000002B15D0FEF79EFF38610AE0FEF79AFFC9
:1044400002463B69D31A41F28832934201D90323D1
:10445000CBE0494B1B6F03F00203002BEED014E0BE
:10446000FEF788FF38610AE0FEF784FF02463B69E9
:10447000D31A41F28832934201D90323B5E03E4B6F
:104480001B6F03F00203002BEED1FB7D012B05D146
:10449000394B1B6C384A23F0805313647B689B694B
:1044A000002B00F0A180344B9B6803F00C03082B19
:1044B0005CD07B689B69022B41D1314B00221A6092
:1044C000FEF758FF386108E0FEF754FF02463B69EB
:1044D000D31A022B01D9032387E0274B1B6803F073
:1044E0000073002BF0D17B68DA697B681B6A1A4382
:1044F0007B685B6A9B011A437B689B6A5B08013B94
:104500001B041A437B68DB6A1B061B4913434B6081
:104510001B4B01221A60FEF72DFF386108E0FEF701
:1045200029FF02463B69D31A022B01D903235CE021
:10453000114B1B6803F00073002BF0D054E0104BBC
:1045400000221A60FEF716FF386108E0FEF712FF3E
:1045500002463B69D31A022B01D9032345E0064BDF
:104560001B6803F00073002BF0D13DE07B689B6972
:10457000012B07D1012338E00038024000700040D1
:10458000600047421B4B5B68FB607B689B69012BAB
:1045900028D0FB6803F480027B68DB699A4221D152
:1045A000FB6803F03F027B681B6A9A421AD1FA68E3
:1045B00047F6C07313407A68526A9201934211D150
:1045C000FB6803F440327B689B6A5B08013B1B0479
:1045D0009A4207D1FB6803F070627B68DB6A1B06B6
:1045E0009A4201D0012300E0002318461837BD4647
:1045F00080BD00BF0038024080B584B000AF786055
:1046000039607B68002B01D10123CCE0684B1B682B
:1046100003F007033A689A420CD9654B3A68D2B264
:104620001A70634B1B6803F007033A689A4201D083
:104630000123B8E07B681B6803F00203002B20D045
:104640007B681B6803F00403002B05D0594B9B6863
:10465000584A43F4E05393607B681B6803F00803F7
:10466000002B05D0534B9B68524A43F46043936040
:10467000504B9B6823F0F0027B689B684D491343C5
:104680008B607B681B6803F00103002B44D07B68C0
:104690005B68012B07D1474B1B6803F40033002BE9
:1046A00019D101237FE07B685B68022B03D07B6814
:1046B0005B68032B07D13F4B1B6803F00073002B93
:1046C00009D101236FE03B4B1B6803F00203002B71
:1046D00001D1012367E0374B9B6823F003027B681D
:1046E0005B68344913438B60FEF744FEF8600AE0D0
:1046F000FEF740FE0246FB68D31A41F2883293422D
:1047000001D903234FE02B4B9B6803F00C027B681D
:104710005B689B009A42EBD1254B1B6803F00703B3
:104720003A689A420CD2224B3A68D2B21A70204BA5
:104730001B6803F007033A689A4201D0012332E074
:104740007B681B6803F00403002B08D0194B9B689F
:1047500023F4E0527B68DB68164913438B607B6867
:104760001B6803F00803002B09D0124B9B6823F44D
:1047700060427B681B69DB000E4913438B6000F0CD
:1047800021F802460B4B9B681B0903F00F030A49F3
:10479000CB5C22FA03F3094A1360094B1B681846E5
:1047A000FEF73CFB002318461037BD4680BD00BF16
:1047B000003C02400038024070C900082800002078
:1047C0002C0000202DE9B04F94B000AF00237B6493
:1047D0000023FB6400233B640023BB64794B9B688C
:1047E00003F00C03082B0DD0082B00F2E180002B06
:1047F00002D0042B03D0DBE0734BBB64DBE0734BD4
:10480000BB64D8E06F4B5B6803F03F037B646D4B88
:104810005B6803F48003002B63D06A4B5B689B09E1
:104820000022BB63FA63BB6BC3F308033B63002343
:104830007B63D7E90C4522462B464FF000004FF032
:104840000001590141EAD261500102460B4621465E
:10485000511A3961294663EB01037B614FF0000275
:104860004FF00003D7E904AB59468B01514643EAA8
:10487000916351468A015146B2EB0108594663EBF8
:1048800001094FF000024FF000034FEAC90343EA69
:1048900058734FEAC80290469946234618EB030323
:1048A000BB602B4649EB0303FB604FF000024FF067
:1048B0000003D7E9024529464B02214643EAD1537A
:1048C00021464A02104619467B6C0022BB62FA62FE
:1048D000D7E90A23FCF7D8F902460B461346FB64D6
:1048E00058E0384B5B689B09002218461146C0F31C
:1048F00008033B6200237B62D7E9088942464B46A6
:104900004FF000004FF00001590141EAD26150011F
:1049100002460B464146B2EB010A494663EB010BE6
:104920004FF000024FF000034FEA8B1343EA9A6303
:104930004FEA8A12B2EB0A0463EB0B054FF0000258
:104940004FF00003EB0043EA5473E20014461D46A7
:104950004346E3183B604B4645EB03037B604FF057
:1049600000024FF00003D7E9004529468B0221469B
:1049700043EA915321468A02104619467B6C002275
:10498000BB61FA61D7E90623FCF77EF902460B46C4
:104990001346FB640B4B5B681B0C03F003030133F2
:1049A0005B003B64FA6C3B6CB2FBF3F3BB6402E06C
:1049B000054BBB6400BFBB6C18465037BD46BDE815
:1049C000B08F00BF003802400024F40000127A00CB
:1049D00080B400AF034B1B681846BD465DF8047BEE
:1049E000704700BF2800002080B500AFFFF7F0FF40
:1049F0000246054B9B689B0A03F007030349CB5C07
:104A000022FA03F3184680BD0038024080C900082E
:104A100080B500AFFFF7DCFF0246054B9B685B0BE0
:104A200003F007030349CB5C22FA03F3184680BD69
:104A30000038024080C9000880B483B000AF7860BD
:104A400039607B680F221A60124B9B6803F00302E7
:104A50007B685A600F4B9B6803F0F0027B689A609A
:104A60000C4B9B6803F4E0527B68DA60094B9B684F
:104A7000DB0803F4E0527B681A61074B1B6803F004
:104A800007023B681A6000BF0C37BD465DF8047B27
:104A9000704700BF00380240003C024080B584B03F
:104AA00000AFF860B9607A60FB68002B01D1012388
:104AB00038E0FB6893F84930DBB2002B06D1FB6885
:104AC000002283F84820F868FEF79EF9FB681A6810
:104AD000FB6808331946104601F096FDFB6818681C
:104AE000FB689B681A46B96801F0F8FDFB685868D6
:104AF000FB689A68FB681B6B796801F01DFEFB6818
:104B00001B68FA68926853F82210FB681B68FA6801
:104B1000926841F0010143F82210FB68012283F8FA
:104B20004920002318461037BD4680BD80B582B0AD
:104B300000AF78607B68002B01D1012341E07B68E6
:104B400093F83D30DBB2002B06D17B68002283F85E
:104B50003C20786800F039F87B68022283F83D2019
:104B60007B681A687B6804331946104600F0C0F968
:104B70007B68012283F846207B68012283F83E206F
:104B80007B68012283F83F207B68012283F8402064
:104B90007B68012283F841207B68012283F8422050
:104BA0007B68012283F843207B68012283F844203C
:104BB0007B68012283F845207B68012283F83D2031
:104BC000002318460837BD4680BD80B483B000AFCF
:104BD000786000BF0C37BD465DF8047B704700006D
:104BE00080B485B000AF78607B6893F83D30DBB26D
:104BF000012B01D001234EE07B68022283F83D2087
:104C00007B681B68DA687B681B6842F00102DA6027
:104C10007B681B68234A934222D07B681B68B3F1F0
:104C2000804F1DD07B681B681F4A934218D07B6859
:104C30001B681E4A934213D07B681B681C4A934230
:104C40000ED07B681B681B4A934209D07B681B68A7
:104C5000194A934204D07B681B68184A934211D1C9
:104C60007B681B689B6803F00703FB60FB68062BEF
:104C700010D07B681B681A687B681B6842F00102D1
:104C80001A6007E07B681B681A687B681B6842F043
:104C900001021A60002318461437BD465DF8047BF4
:104CA000704700BF000001400004004000080040C1
:104CB000000C00400004014000400140001800408A
:104CC00080B584B000AF78607B681B68DB68FB60F0
:104CD0007B681B681B69BB60BB6803F00203002B89
:104CE00020D0FB6803F00203002B1BD07B681B68FD
:104CF0006FF002021A617B6801221A777B681B68D9
:104D00009B6903F00303002B03D0786800F0D2F80E
:104D100005E0786800F0C4F8786800F0D5F87B68A2
:104D200000221A77BB6803F00403002B20D0FB6835
:104D300003F00403002B1BD07B681B686FF0040298
:104D40001A617B6802221A777B681B689B6903F4EF
:104D50004073002B03D0786800F0ACF805E0786869
:104D600000F09EF8786800F0AFF87B6800221A77B0
:104D7000BB6803F00803002B20D0FB6803F0080396
:104D8000002B1BD07B681B686FF008021A617B68E0
:104D900004221A777B681B68DB6903F00303002B8E
:104DA00003D0786800F086F805E0786800F078F8BD
:104DB000786800F089F87B6800221A77BB6803F0F6
:104DC0001003002B20D0FB6803F01003002B1BD036
:104DD0007B681B686FF010021A617B6808221A77E3
:104DE0007B681B68DB6903F44073002B03D0786891
:104DF00000F060F805E0786800F052F8786800F09C
:104E000063F87B6800221A77BB6803F00103002B6C
:104E10000CD0FB6803F00103002B07D07B681B68F4
:104E20006FF001021A617868FDF724FDBB6803F09A
:104E30008003002B0CD0FB6803F08003002B07D00D
:104E40007B681B686FF080021A61786800F000F9D7
:104E5000BB6803F04003002B0CD0FB6803F0400359
:104E6000002B07D07B681B686FF040021A617868DE
:104E700000F034F8BB6803F02003002B0CD0FB6873
:104E800003F02003002B07D07B681B686FF0200223
:104E90001A61786800F0D2F800BF1037BD4680BDB7
:104EA00080B483B000AF786000BF0C37BD465DF8BA
:104EB000047B704780B483B000AF786000BF0C37CC
:104EC000BD465DF8047B704780B483B000AF786066
:104ED00000BF0C37BD465DF8047B704780B483B0DB
:104EE00000AF786000BF0C37BD465DF8047B7047AB
:104EF00080B485B000AF786039607B681B68FB6068
:104F00007B68434A934213D07B68B3F1804F0FD044
:104F10007B68404A93420BD07B683F4A934207D05C
:104F20007B683E4A934203D07B683D4A934208D156
:104F3000FB6823F07003FB603B685B68FA6813430F
:104F4000FB607B68324A93422BD07B68B3F1804F81
:104F500027D07B682F4A934223D07B682E4A934206
:104F60001FD07B682D4A93421BD07B682C4A93420A
:104F700017D07B682B4A934213D07B682A4A93420E
:104F80000FD07B68294A93420BD07B68284A934212
:104F900007D07B68274A934203D07B68264A934216
:104FA00008D1FB6823F44073FB603B68DB68FA6858
:104FB0001343FB60FB6823F080023B685B6913438B
:104FC000FB603B689A687B68DA623B681A687B68BA
:104FD0009A627B680E4A934203D07B68104A9342E0
:104FE00003D13B681A697B681A637B681B6843F0CE
:104FF00004027B681A607B6801225A617B68FA6848
:105000001A6000BF1437BD465DF8047B704700BFCF
:10501000000001400004004000080040000C004077
:1050200000040140004001400044014000480140AC
:1050300000180040001C00400020004080B483B0F5
:1050400000AF786000BF0C37BD465DF8047B704749
:1050500080B483B000AF786000BF0C37BD465DF808
:10506000047B704780B582B000AF78607B68002B0E
:1050700001D1012342E07B6893F84130DBB2002B81
:1050800006D17B68002283F840207868FDF772FC27
:105090007B68242283F841207B681B68DA687B6880
:1050A0001B6822F40052DA60786801F039F87B68F6
:1050B0001B681A697B681B6822F490421A617B683E
:1050C0001B685A697B681B6822F02A025A617B6858
:1050D0001B68DA687B681B6842F40052DA607B6800
:1050E00000225A647B68202283F841207B682022BA
:1050F00083F842207B6800225A6300231846083751
:10510000BD4680BD80B58CB000AFF860B960134675
:10511000FB80FB6893F84130DBB2202B62D1BB6887
:10512000002B02D0FB88002B01D101235BE0BA6881
:10513000FB681A62FB68FA889A84FB68FA88DA844A
:10514000FB6800225A64FB68212283F84120FB6837
:105150009B6B274ADA63FB689B6B264A1A64FB68E1
:105160009B6B254ADA64FB689B6B00221A6507F18A
:105170000803FB62FB68986BFB6A1968FB681B6895
:1051800004331A46FB88FEF7B5FA0346002B08D015
:10519000FB6810225A64FB68202283F84120012317
:1051A00021E0FB681B686FF040021A60FB681B6817
:1051B0001433BB61BB6953E8003F7B617B6943F0FB
:1051C0008003BB62FB681B681433BA6A7A623B6275
:1051D000396A7A6A41E80023FB61FB69002BE5D15B
:1051E000002300E0022318463037BD4680BD00BFD3
:1051F0009D590008375A0008BB5B000880B584B091
:1052000000AFF860B9601346FB80FB6893F842304A
:10521000DBB2202B12D1BB68002B02D0FB88002B05
:1052200001D101230BE0FB6800221A63FB881A46B8
:10523000B968F86800F00CFD034600E00223184648
:105240001037BD4680BD80B590B000AF78600023B8
:10525000FB637B681B685B6903F08003802B0CBFDA
:1052600001230023DBB2FB637B6893F84130DBB2A0
:10527000212B28D1FB6B002B25D07B681B681433B6
:105280007B627B6A53E8003F3B623B6A23F080030A
:10529000BB637B681B681433BA6B3A63FB62F96AC1
:1052A0003A6B41E80023BB62BB6A002BE5D17B6807
:1052B0009B6B002B04D07B689B6B1846FEF772FA41
:1052C000786800F06BFD7B681B685B6903F0400346
:1052D000402B0CBF01230023DBB2FB637B6893F8F8
:1052E0004230DBB2222B28D1FB6B002B25D07B6810
:1052F0001B6814333B613B6953E8003FFB60FB686C
:1053000023F040037B637B681B6814337A6BFA617C
:10531000BB61B969FA6941E800237B617B69002BB5
:10532000E5D17B68DB6B002B04D07B68DB6B184618
:10533000FEF738FA786800F059FD00231846403728
:10534000BD4680BD80B58CB000AFF860B960134633
:10535000FB80FB6893F84230DBB2202B46D1BB6860
:10536000002B02D0FB88002B01D101233FE0FB681A
:1053700001221A63FB6800225A63FB881A46B96847
:10538000F86800F065FC034687F82F30FB681B6B5C
:10539000012B25D100233B61FB681B681B683B6127
:1053A000FB681B685B683B613B69FB681B680C33EF
:1053B000BB61BB6953E8003F7B617B6943F010032D
:1053C000BB62FB681B680C33BA6A7A623B62396A5B
:1053D0007A6A41E80023FB61FB69002BE5D102E01A
:1053E000012387F82F3097F82F3000E0022318466A
:1053F0003037BD4680BD000080B5BAB000AF7860E0
:105400007B681B681B68C7F8E4307B681B68DB6837
:10541000C7F8E0307B681B685B69C7F8DC300023A5
:10542000C7F8D8300023C7F8D430D7F8E43003F0F9
:105430000F03C7F8D830D7F8D830002B0FD1D7F8E2
:10544000E43003F02003002B09D0D7F8E03003F05C
:105450002003002B03D0786800F0A4FD73E2D7F896
:10546000D830002B00F0DE80D7F8DC3003F00103E9
:10547000002B06D1D7F8E03003F49073002B00F036
:10548000D180D7F8E43003F00103002B0BD0D7F81C
:10549000E03003F48073002B05D07B685B6C43F035
:1054A00001027B685A64D7F8E43003F00403002B50
:1054B0000BD0D7F8DC3003F00103002B05D07B685C
:1054C0005B6C43F002027B685A64D7F8E43003F067
:1054D0000203002B0BD0D7F8DC3003F00103002BC4
:1054E00005D07B685B6C43F004027B685A64D7F894
:1054F000E43003F00803002B11D0D7F8E03003F0BC
:105500002003002B05D1D7F8DC3003F00103002B7A
:1055100005D07B685B6C43F008027B685A647B684B
:105520005B6C002B00F00A82D7F8E43003F0200314
:10553000002B08D0D7F8E03003F02003002B02D076
:10554000786800F02FFD7B681B685B6903F04003FF
:10555000402B0CBF01230023DBB2C7F8D4307B689B
:105560005B6C03F00803002B03D1D7F8D430002B79
:105570004FD0786800F03AFC7B681B685B6903F0E9
:105580004003402B41D17B681B681433C7F89C3023
:10559000D7F89C3053E8003FC7F89830D7F89830D8
:1055A00023F04003C7F8D0307B681B681433D7F86A
:1055B000D020C7F8A820C7F8A430D7F8A410D7F88F
:1055C000A82041E80023C7F8A030D7F8A030002B6E
:1055D000D9D17B68DB6B002B13D07B68DB6B8A4AED
:1055E0001A657B68DB6B1846FEF74CF90346002B07
:1055F00016D07B68DB6B1B6D7A68D26B10469847C0
:105600000EE0786800F0C0F90AE0786800F0BCF9B4
:1056100006E0786800F0B8F97B6800225A648DE1F2
:1056200000BF8BE17B681B6B012B40F06781D7F8D3
:10563000E43003F01003002B00F06081D7F8E03075
:1056400003F01003002B00F059810023BB607B683E
:105650001B681B68BB607B681B685B68BB60BB68C2
:105660007B681B685B6903F04003402B40F0CE80F1
:105670007B68DB6B1B685B68A7F8BE30B7F8BE3091
:10568000002B00F0A9807B689B8DB7F8BE209A4262
:1056900080F0A2807B68B7F8BE20DA857B68DB6B80
:1056A000DB69B3F5807F00F088807B681B680C3372
:1056B000C7F88830D7F8883053E8003FC7F88430FF
:1056C000D7F8843023F48073C7F8B8307B681B6840
:1056D0000C33D7F8B820C7F89420C7F89030D7F823
:1056E0009010D7F8942041E80023C7F88C30D7F801
:1056F0008C30002BD9D17B681B6814337B677B6FA0
:1057000053E8003F3B673B6F23F00103C7F8B43019
:105710007B681B681433D7F8B420C7F88020FB6778
:10572000F96FD7F8802041E80023BB67BB6F002BDF
:10573000E1D17B681B6814333B663B6E53E8003F46
:10574000FB65FB6D23F04003C7F8B0307B681B6836
:105750001433D7F8B020FA66BB66B96EFA6E41E82A
:1057600000237B667B6E002BE3D17B68202283F8CD
:1057700042207B6800221A637B681B680C33FB6441
:10578000FB6C53E8003FBB64BB6C23F01003C7F80D
:10579000AC307B681B680C33D7F8AC20BA657B65EE
:1057A000796DBA6D41E800233B653B6D002BE3D179
:1057B0007B68DB6B1846FDF7F5FF7B6802225A63B6
:1057C0007B689A8D7B68DB8D9BB2D31A9BB219469E
:1057D0007868FDF721F8B3E07B689B8DB7F8BE20B1
:1057E0009A4240F0AD807B68DB6BDB69B3F5807F6C
:1057F00040F0A6807B6802225A637B689B8D194625
:105800007868FDF709F89BE0B35E00087B689A8D25
:105810007B68DB8D9BB2D31AA7F8CE307B68DB8D1B
:105820009BB2002B00F08E80B7F8CE30002B00F03A
:1058300089807B681B680C33BB63BB6B53E8003FFC
:105840007B637B6B23F49073C7F8C8307B681B685D
:105850000C33D7F8C8207A643B64396C7A6C41E821
:105860000023FB63FB6B002BE3D17B681B681433C5
:105870007B627B6A53E8003F3B623B6A23F0010393
:10588000C7F8C4307B681B681433D7F8C4203A6368
:10589000FB62F96A3A6B41E80023BB62BB6A002BEA
:1058A000E3D17B68202283F842207B6800221A63C0
:1058B0007B681B680C333B613B6953E8003FFB602E
:1058C000FB6823F01003C7F8C0307B681B680C33FB
:1058D000D7F8C020FA61BB61B969FA6941E80023D1
:1058E0007B617B69002BE3D17B6802225A63B7F8A6
:1058F000CE3019467868FCF78FFF23E0D7F8E43004
:1059000003F08003002B09D0D7F8E03003F08003C8
:10591000002B03D0786800F0DDFA14E0D7F8E4300B
:1059200003F04003002B0ED0D7F8E03003F0400323
:10593000002B08D0786800F01DFB04E000BF02E0F7
:1059400000BF00E000BFE837BD4680BD80B483B033
:1059500000AF786000BF0C37BD465DF8047B704730
:1059600080B483B000AF786000BF0C37BD465DF8EF
:10597000047B704780B483B000AF786000BF0C3701
:10598000BD465DF8047B704780B483B000AF78609B
:1059900000BF0C37BD465DF8047B704780B590B002
:1059A00000AF78607B689B6BFB637B681B681B6840
:1059B00003F48073002B37D1FB6B0022DA84FB6B7E
:1059C0001B6814337B627B6A53E8003F3B623B6A8F
:1059D00023F08003BB63FB6B1B681433BA6B3A6321
:1059E000FB62F96A3A6B41E80023BB62BB6A002B99
:1059F000E5D1FB6B1B680C333B613B6953E8003F0F
:105A0000FB60FB6843F040037B63FB6B1B680C335C
:105A10007A6BFA61BB61B969FA6941E800237B617D
:105A20007B69002BE5D102E0F86BFCF7D5FE00BFE7
:105A30004037BD4680BD80B584B000AF78607B68DC
:105A40009B6BFB60F868FFF781FF00BF1037BD4616
:105A500080BD80B59CB000AF78607B689B6BFB66B7
:105A60007B681B681B6803F48073002B72D1FB6E8C
:105A70000022DA85FB6E1B680C33FB64FB6C53E879
:105A8000003FBB64BB6C23F48073BB66FB6E1B687A
:105A90000C33BA6EBA657B65796DBA6D41E8002347
:105AA0003B653B6D002BE5D1FB6E1B681433BB637C
:105AB000BB6B53E8003F7B637B6B23F001037B668A
:105AC000FB6E1B6814337A6E7A643B64396C7A6CB3
:105AD00041E80023FB63FB6B002BE5D1FB6E1B68E9
